:100000000EC06CC01DC01BC01AC019C018C017C0DC
:1000100016C015C014C013C012C011C010C01124E6
:100020001FBECFE5D2E0DEBFCDBF20E0A0E6B0E04E
:1000300001C01D92A536B207E1F7DDD009C1E0CFBE
:100040001F920F920FB60F9211242F933F934F934D
:100050005F936F937F938F939F93AF93BF93EF9330
:10006000FF93B19B0AC0809160008430B9F064D0E6
:1000700080916000882309F0A895FF91EF91BF91CE
:10008000AF919F918F917F916F915F914F913F9130
:100090002F910F900FBE0F901F90189580916100C7
:1000A0008823B9F0C09880916100815080936100ED
:1000B00080916300811107C098B388E0892788BBCD
:1000C00083E080936300809163008150809363009C
:1000D000CFCFC09A88E180936100E5CF1F920F9245
:1000E0000FB60F9211242F933F934F935F936F930B
:1000F0007F938F939F93AF93BF93EF93FF938091E1
:10010000A0009091A10087FDFFCF28D080916000D2
:10011000882309F0A895FF91EF91BF91AF919F912E
:100120008F917F916F915F914F913F912F910F90A0
:100130000FBE0F901F90189580916000843049F099
:1001400080916000882331F0809164008F5F8093FC
:100150006400089581E080936000089580916000BC
:100160008230A1F168F4882359F1813069F481B5B6
:10017000886181BD82E080936000109264000895E0
:10018000833099F08430C9F310926000C098C4980D
:10019000C3988091A0009091A10080689093A100E5
:1001A0008093A000109264000895809164008C30C8
:1001B00021F784E0809360008BB78F7B8BBFDDCF0E
:1001C00081E0809360001092640008958091640043
:1001D000823099F683E080936000C49ACECF10926B
:1001E000A1001092A000E0E6F0E0108211821282DD
:1001F000138214820895F894F2DF80E886BD16BC5D
:1002000014BE81B5886181BD11BC84E081BD8BB70E
:1002100080648BBF85B78E7F85BF85B7826085BFC1
:100220008BB780628BBFA99AB89ABC9ABB9AC098C8
:10023000C498C398BA98B998C29AC19A7894809190
:10024000A0009091A10087FFFACF80E090E0089590
:04025000F894FFCF50
:00000001FF
