:100000000EC05DC01DC01BC01AC019C018C017C0EB
:1000100016C015C014C013C012C011C010C01124E6
:100020001FBECFE5D2E0DEBFCDBF20E0A0E6B0E04E
:1000300001C01D92A736B207E1F7F2D01EC1E0CF92
:100040001F920F920FB60F9211242F933F934F934D
:100050005F936F937F938F939F93AF93BF93EF9330
:10006000FF93B19B0AC0809160008430B9F056D0F4
:1000700080916000882309F0A895FF91EF91BF91CE
:10008000AF919F918F917F916F915F914F913F9130
:100090002F910F900FBE0F901F90189580916300C5
:1000A000811107C098B388E0892788BB83E08093DB
:1000B000630080916300815080936300D9CF1F92C9
:1000C0000F920FB60F9211242F933F934F935F938C
:1000D0006F937F938F939F93AF93BF93EF93FF9310
:1000E0008091A0019091A10197FD17C029D0809126
:1000F0006000882309F0A895FF91EF91BF91AF911F
:100100009F918F917F916F915F914F913F912F912F
:100110000F900FBE0F901F901895FFCF8091600039
:10012000843049F080916000882331F08091640030
:100130008F5F80936400089581E08093600008954C
:10014000809160008230C9F168F4882381F18130A8
:10015000E9F481B5886181BD83E0809360001092ED
:1001600064000895833091F1843081F4C49A8091C1
:100170006200811133C080916500909166000597FF
:10018000B0F1C09883E08093620029C010926000B3
:10019000C098C498C3988091A0019091A1019068E3
:1001A0009093A1018093A00110926400089581E0D2
:1001B0008093600010926400089580916400823002
:1001C00071F683E080936000C49AC9CF8091640087
:1001D0008C3029F684E080936000C1CFC098809174
:1001E0006200815080936200109264000895C09A6A
:1001F00080916500909166000196909366008093CF
:100200006500C0CF1092A1011092A001E0E6F0E0DD
:10021000108211821282138214821682158208952E
:10022000F894F0DF80E886BD16BC14BE81B5886105
:1002300081BD11BC84E081BD8BB780648BBF85B765
:100240008E7F85BF85B7826085BF8BB780628BBF8D
:10025000A99AB89ABC9ABB9AC098C498C398BA98FD
:10026000B998C29AC19A78948091A0019091A10105
:0E02700097FFFACF80E090E00895F894FFCF5A
:00000001FF
