:100000000EC046C01DC01BC01AC019C018C017C002
:1000100016C015C014C013C012C011C010C01124E6
:100020001FBECFE5D2E0DEBFCDBF20E0A0E6B0E04E
:1000300001C01D92A336B207E1F757D0E2C0E0CF6E
:100040001F920F920FB60F9211242F933F934F934D
:100050005F936F937F938F939F93AF93BF93EF9330
:10006000FF93B19B03C073D0C39A01C0C398FF91A3
:10007000EF91BF91AF919F918F917F916F915F9120
:100080004F913F912F910F900FBE0F901F90189599
:100090001F920F920FB60F9211242F933F934F93FD
:1000A0005F936F937F938F939F93AF93BF93EF93E0
:1000B000FF938091A00088230CF4FFCF5AD0809149
:1000C0006000882309F0A895FF91EF91BF91AF914F
:1000D0009F918F917F916F915F914F913F912F9160
:1000E0000F900FBE0F901F90189583D0F89480E862
:1000F00086BD16BC14BE81B5886181BD11BC84E08B
:1001000081BD8BB780648BBF85B7816085BF85B7A4
:10011000826085BF8BB780628BBFA99A85B78160EB
:1001200085BF85B7826085BFBA98C29AB998C19ACF
:10013000B89ABC9ABB9AC098C498C3987894E0EADD
:10014000F0E080818823ECF780E090E008958091D2
:100150006000833069F080916000811104C081E00B
:10016000809360000895E0E6F0E082818F5F8283F3
:10017000089580916000813051F028F0823071F054
:100180008330B9F029C081E0809360002FC081B531
:10019000886181BD82E08093600028C08091620008
:1001A0008C3021F583E0809360008BB78F7D8BBF0F
:1001B0001DC0C49A80916100811106C0C09AC39A83
:1001C00083E08093610002C0C098C398E0E6F0E04D
:1001D0008181815081830AC010926000C098C498C8
:1001E000C39AE0EAF0E08081806880831092620028
:1001F00008951092A000E0E6F0E0108211821282D1
:060200000895F894FFCF01
:00000001FF
